:1000000005308A00E62D00000A108A100A118207C6
:1000100028340C3401340634482AC729A026CF24BA
:10002000202AD22A4F274700472B48223A222E2A3D
:10003000C8242E2A5517CD2C000133308400831399
:100040000008031931280130F800F701F70B2628C2
:10005000F80B25284A30F700F70B2C282F28800BA7
:10006000232808003A183628081037280814831661
:1000700008108312BA183E2888103F288814831667
:10008000881083123A194628881147288815831644
:1000900088118312BA194E2808114F2808158316A3
:1000A00008110000831288168316881257288312BD
:1000B00088128316881283120800BB018316081465
:1000C0000030831208180130BB04831688140030F6
:1000D000831288180130F7000310F70D7708BB046E
:1000E000831688150030831288190130F700F70D48
:1000F000F70DFC30F7057708BB04831608150030B0
:10010000831208190130F700F70DF70DF70DF830DD
:10011000F7057708BB043B08F8000800881383162E
:100120008813081488148815081583120817831675
:1001300008130000831288168316881200008312A9
:100140005D207808BA008812831688120000831296
:10015000881683168812000083125D207808B90083
:1001600088128316881208108810881108118312CB
:100170003A0EF700F030F70577083904F8007808F0
:10018000B900B91FC52883169128B708031DCA28CE
:100190008813CB288817831688130000831208134E
:1001A00083160813000083128812831688128312A4
:1001B000380EB9000F30B9053908BA0032203808B6
:1001C0000F39B900BA0032200800831608108810D1
:1001D0008811081188128813081383128813831654
:1001E0008813831208138316081383128812831648
:1001F00088120F308312B3001D200130A50025089E
:10020000033C031C0B290330BA0032200530B30035
:100210001D20A50AFF280230BA003220A5012508BA
:10022000033C031C1C2925080420A600B70126084E
:10023000B8008E20A50A0F298A110A12FF2D340B4F
:100240002329B50137293408023C031D2A294030EF
:10025000B50037293408033C031D31291430B5009B
:1002600037293408043C031D37295430B5000130C8
:100270003302B50735088038B600B7013608B80034
:100280008E20080032080C3A03194D29063A03194A
:100290005529023A03195B296029B7010130B800DA
:1002A0008E200230B3001D2065290130B3000230DA
:1002B000B4001F216529B7011030B8008E206529D0
:1002C0000130B7003208B8008E2008000B08A500E6
:1002D0008B13831603178C170C1400000000831275
:1002E0000313A51B8B1703170C087F390319BA29B1
:1002F0000313A50003170D080313A60003170F0827
:100300000313A7002508B2004221260803178D0019
:100310000313270803178F0003130B08A8008B1380
:10032000831603178C170C140000000083120313AC
:10033000A81B8B1703170C0D0E0D7F390319BA2953
:100340000313A50003170D080313A60003170F08D6
:100350000313A7002508B2004221260803178D00C9
:100360000313270803178F008D0A03198F0A03133D
:100370006629031703130800A6012508260203189F
:10038000C6296430B3001D20A60ABD298A110A12AD
:10039000192E8316091183120911A630F700F70BE5
:1003A000CF29000083160915A630F700F70BD629D0
:1003B0000000091583120800AF012F08073C031C39
:1003C000F9298316091183120911E6290310AE0CCD
:1003D0000318EC290911ED290915831609111330A9
:1003E000F700F70BF129F4290915F6298312AF0A52
:1003F000DD290800AE012E08073C031C1A2A8316CB
:10040000091183120911042A831609150230F70015
:10041000F70B082A0000091583120919112A031085
:10042000122A0314AF0C2730F700F70B152A182AED
:10043000AE0AFB292F08F8000800A501C921CC301D
:10044000AE00DC214430AE00DC21A508031D2C2ABF
:10045000FA217808A500252AC921CC30AE00DC217C
:10046000BE30AE00DC21FA217808A600FA21780817
:10047000A7002708A9002608A8002908AF00280817
:10048000AE008E30F7002F08F8002E08F900FA01B0
:10049000AF1F4F2AF809F909F90A0319F80AF808F1
:1004A000031D5C2A7908F800F9010830F702F80802
:1004B000031D5C2AF701652A0310F81B632AF90D56
:1004C000F80DF7035C2AAF1FF8137A08B10079081A
:1004D000B0007808AF007708AE003108B5003008EA
:1004E000B4002F08B3002E08B200B901B801B7015B
:1004F0008330B600320803193F2BBE0036080319BB
:100500003F2BBE02031C892A7F30BE0703183F2BF6
:100510008F2A8130BE02031C3F2B03193F2B3E085C
:10052000F700F801F901FA01BD013308BC00BC175E
:100530003408BB003508BA001930BE003908BA02C9
:100540000318B22A0130BB020318B22ABC020318F6
:10055000B22ABD020318B22ABD0ABC0ABB0A390876
:10056000BA07E42A3808BB020318CD2A0130BC02BE
:100570000318CD2ABD020318CD2ABD0ABC0A3808CB
:10058000BB073908BA07031CE42ABB0A031DE42A87
:10059000BC0A031DE42ABD0AE42A37088038BC02DD
:1005A0000318E32A0130BD020318E32ABD0A370805
:1005B0008038BC073808BB07031CC12ABC0A031DCE
:1005C000C12ABD0AC12A7A14BE0BE72AF22A0310F7
:1005D000BA0DBB0DBC0DBD0D0310FA0DF90DF80DD4
:1005E000BF0D9E2A3F1CFA2A0310F80CF90CFA0CD6
:1005F000BF0CFD2AF70303193F2BBF1B262B03104B
:10060000BA0DBB0DBC0DBD0D3908BA020318122B73
:100610000130BB020318122BBC020318122BBD02BF
:10062000031C352B3808BB0203181D2B0130BC02FC
:1006300003181D2BBD02031C352B37088038BC0264
:100640000318262B0130BD02031C352BFA0A031DAB
:10065000352BF90A031D352BF80A031D352BF70A34
:1006600003193F2BF80CF90CFA0C3308BE003708BD
:10067000BE06BE1F3D2BF817432BF813432BF70183
:10068000F801F901FA017A08AD007908AC007808A0
:10069000AB007708AA00C830B3001D202A08F70075
:1006A0002B08F8002C08F9002D08FA000800320881
:1006B0000319C72BBA0036080319C72BBA0703184A
:1006C000682B7F30BA02031CC72B0319C72B6C2B76
:1006D0008130BA070318C72B3A08F700F801F9016F
:1006E000FA013308BE00BE173408BD003508BC004F
:1006F0001830BA00BB013C1C952B3908FA07031CC3
:10070000872BF90A031D872BF80A0319BB17380832
:10071000F907031C8E2BF80A0319BB173708B4001E
:10072000B4173408F8070318BB17BB0DF80CF90C05
:10073000FA0CBE0CBD0CBC0C0310BA0B7A2B0130AA
:10074000F7070318C72BF81BAC2BBE0DFA0DF90DDC
:10075000F80DF7030319C72BBE1FBD2BFA0A031DA3
:10076000BD2BF90A031DBD2BF80A031DBD2BF80C88
:10077000F90CFA0CF70A0319C72B3308BB0037082A
:10078000BB06BB1FC52BF817CB2BF813CB2BF701E0
:10079000F801F901FA0108003208B63CB200FA018A
:1007A0003308B600B3170310B30CB40CB50CFA0C35
:1007B000F90CF80CF70CB20BD32BB61FEA2BF70988
:1007C000F809F909FA09F70A0319F80A0319F90AE5
:1007D0000319FA0A08008318F02B3A3084008313B7
:1007E000F701F801F901FA01BA01BB01BC01BD0131
:1007F000390838043704360403192E2C2030BE0083
:100800000310B20DB30DB40DB50DBA0DBB0DBC0D7B
:10081000BD0D39083D02031D172C38083C02031D8D
:10082000172C37083B02031D172C36083A02031C0D
:10083000282C3608BA023708031C370FBB023808C9
:10084000031C380FBC023908031C390FBD02031406
:10085000F70DF80DF90DFA0DBE0B002C3A088000CB
:10086000840A3B088000840A3C088000840A3D0812
:10087000800008000408AA002908AC000319592CBC
:100880002808B5002708B4002608B3002508B200E0
:10089000B901B8012030B7008230B60057237A087A
:1008A000A8007908A7007808A6007708A500AC0B77
:1008B000402C2808B5002708B4002608B3002508F6
:1008C000B200CC237A08A8007908A7007808A6000F
:1008D0007708A500A81F792CAA03AA16A509A609BE
:1008E000A709A809A50A0319A60A0319A70A031943
:1008F000A80A3B30B1009A30B000CA30AF00AE0158
:100900000A30AC0029080319AA0A83142530840090
:1009100083132808B5002708B4002608B30025086B
:10092000B2003108B9003008B8002F08B7002E080F
:10093000B600EB237808F708031DB12C290A2C0216
:100940000319B12C2A080319B32C0F392C020319EF
:10095000AB2C0318E32CAA1BE32C2A1BB32C20304E
:10096000DF2C2030AA05AA1EC12CAA122908031DBB
:10097000AA037708AA002D30B20042212A08F70006
:10098000AA0129082C02031DCF2C7708AA002E30BB
:10099000B20042212A08F7002030AA05003030308A
:1009A000AA1EDF2CAA122908031DAA037708AA0091
:1009B0002D30B20042212A08F700AA013030F70793
:1009C0007708B200422183103108B5003008B40026
:1009D0002F08B3002E08B200B901B801B7010A30E0
:1009E000B600EB237A08B1007908B0007808AF00B0
:1009F0007708AE00AC0B852C8A110A12482E83169C
:100A00000810831208100830F800062D0000F817AF
:100A1000172DF813B20C03180814031C08107817CC
:100A2000172D7813F80B0A2D152D00000814A73088
:100A30008400840B192D1C2DF81B092D781B112DFA
:100A400008000408AA002908AC000319402D280852
:100A5000B5002708B4002608B3002508B200B90184
:100A6000B8012030B7008230B60057237A08A800BA
:100A70007908A7007808A6007708A500AC0B272DF9
:100A80002808B5002708B4002608B3002508B200DE
:100A9000CC237A08A8007908A7007808A600770870
:100AA000A500A81F602DAA03AA16A509A609A709D3
:100AB000A809A50A0319A60A0319A70A0319A80A6F
:100AC0003B30B1009A30B000CA30AF00AE010A30FE
:100AD000AC0029080319AA0A831425308400831363
:100AE0002808B5002708B4002608B3002508B2007E
:100AF0003108B9003008B8002F08B7002E08B6003A
:100B0000EB237808F708031D982D290A2C020319F6
:100B1000982D2A0803199A2D0F392C020319922DAA
:100B20000318CA2DAA1BCA2D2A1B9A2D2030C62DA8
:100B30002030AA05AA1EA82DAA122908031DAA035F
:100B40007708AA002D30B200FF242A08F700AA0176
:100B500029082C02031DB62D7708AA002E30B200FA
:100B6000FF242A08F7002030AA0500303030AA1EE2
:100B7000C62DAA122908031DAA037708AA002D3042
:100B8000B200FF242A08F700AA013030F7077708DF
:100B9000B200FF2483103108B5003008B4002F08DC
:100BA000B3002E08B200B901B801B7010A30B6008F
:100BB000EB237A08B1007908B0007808AF00770815
:100BC000AE00AC0B6C2D8A110A125B2E03081F3984
:100BD000830083160810831208148316031709086C
:100BE000C039890003131F129F12003003178800B9
:100BF000831287018801890183130313E5280130DB
:100C0000B300B4001F210C3003178D0000308F009B
:100C1000031366210130B3000230B4001F211430E9
:100C200003178D0000308F00031366213230A500BA
:100C3000BC290C30B20042211D227A08A400790898
:100C4000A3007808A2007708A1001D227A08A4005A
:100C50007908A3007808A2007708A1000130B3004A
:100C6000B4001F215430B20042213130B200422181
:100C70003D30B2004221023084002408A80023083D
:100C8000A7002208A6002108A5000230A9003A2CDE
:100C9000DF30B20042214330B200422102308400F2
:100CA0002408A8002308A7002208A6002108A50000
:0A0CB0000230A900212D252E63005B
:04400E00E22CFF3F62
:00000001FF
;PIC16F887
;CRC=BD9C  CREATED="22-May-18 09:05"
